:020000040800F2
:100000000010002021240008692400086924000849
:100010006924000869240008692400080000000021
:10002000000000000000000000000000692400083B
:100030006924000800000000692400086924000801
:1000400000000000000000000000000000000000B0
:1000500000000000000000000000000000000000A0
:100060000000000000000000000000000000000090
:100070000000000000000000000000000000000080
:100080000000000000000000000000000000000070
:100090000000000000000000000000000000000060
:1000A0000000000000000000000000000000000050
:1000B0000000000000000000000000000000000040
:1000C0000000000000000000000000000000000030
:1000D0000000000000000000000000000000000020
:1000E0000000000000000000000000000000000010
:1000F0000000000000000000000000000000000000
:1001000000000000000000000000000000000000EF
:1001100000000000000000000000000000000000DF
:1001200000000000000000000000000000000000CF
:1001300000000000000000000000000000000000BF
:1001400000000000000000000000000000000000AF
:10015000000000000000000000000000000000009F
:10016000000000000000000000000000000000008F
:10017000000000000000000000000000000000007F
:08018000000000000000000077
:100188000448054B10B5834203D0044B002B00D024
:10019800984710BD04000020040000200000000063
:1001A80006480749091A8B10C90FC91810B5491014
:1001B80003D0044B002B00D0984710BD040000204A
:1001C800040000200000000010B5074C2378002B25
:1001D80009D1FFF7D5FF054B002B02D0044800E0FA
:1001E80000BF0123237010BD08000020000000009C
:1001F8006C240008054B10B5002B03D004490548B2
:1002080000E000BFFFF7CCFF10BDC04600000000B3
:100218000C0000206C24000802B47146490849000B
:10022800095C49008E4402BC7047C046002243085E
:100238008B4274D303098B425FD3030A8B4244D3A6
:10024800030B8B4228D3030C8B420DD3FF220902E8
:1002580012BA030C8B4202D31212090265D0030BA7
:100268008B4219D300E0090AC30B8B4201D3CB039D
:10027800C01A5241830B8B4201D38B03C01A5241DF
:10028800430B8B4201D34B03C01A5241030B8B42E1
:1002980001D30B03C01A5241C30A8B4201D3CB02CC
:1002A800C01A5241830A8B4201D38B02C01A5241B1
:1002B800430A8B4201D34B02C01A5241030A8B42B4
:1002C80001D30B02C01A5241CDD2C3098B4201D3CC
:1002D800CB01C01A524183098B4201D38B01C01A4A
:1002E800524143098B4201D34B01C01A52410309C1
:1002F8008B4201D30B01C01A5241C3088B4201D370
:10030800CB00C01A524183088B4201D38B00C01A1C
:10031800524143088B4201D34B00C01A5241411A43
:1003280000D20146524110467047FFE701B5002050
:1003380000F0F0F802BDC0460029F7D076E7704714
:1003480003460B437FD4002243088B4274D303092E
:100358008B425FD3030A8B4244D3030B8B4228D3CF
:10036800030C8B420DD3FF22090212BA030C8B42F5
:1003780002D31212090265D0030B8B4219D300E095
:10038800090AC30B8B4201D3CB03C01A5241830B1A
:100398008B4201D38B03C01A5241430B8B4201D3CA
:1003A8004B03C01A5241030B8B4201D30B03C01AF3
:1003B8005241C30A8B4201D3CB02C01A5241830A6D
:1003C8008B4201D38B02C01A5241430A8B4201D39C
:1003D8004B02C01A5241030A8B4201D30B02C01AC6
:1003E8005241CDD2C3098B4201D3CB01C01A52412D
:1003F80083098B4201D38B01C01A524143098B42B6
:1004080001D34B01C01A524103098B4201D30B019E
:10041800C01A5241C3088B4201D3CB00C01A5241C3
:1004280083088B4201D38B00C01A524143088B4288
:1004380001D34B00C01A5241411A00D20146524121
:10044800104670475DE0CA0F00D04942031000D340
:100458004042534000229C4603098B422DD3030A95
:100468008B4212D3FC22890112BA030A8B420CD3A5
:10047800890192118B4208D3890192118B4204D3CE
:1004880089013AD0921100E08909C3098B4201D34E
:10049800CB01C01A524183098B4201D38B01C01A88
:1004A800524143098B4201D34B01C01A52410309FF
:1004B8008B4201D30B01C01A5241C3088B4201D3AE
:1004C800CB00C01A524183088B4201D38B00C01A5B
:1004D8005241D9D243088B4201D34B00C01A524132
:1004E800411A00D20146634652415B10104601D3BF
:1004F8004042002B00D54942704763465B1000D349
:10050800404201B5002000F005F802BD0029F8D0EE
:1005180016E770477047C046D0400B00D1409C4654
:10052800203AD340184352426346934018437047D9
:100538009140030090409C46203A93401943524210
:100548006346D3401943704770B50D4B0D4D5E1B84
:10055800B610AB4205D0002408CD01349847A64216
:10056800FAD801F07FFF084B084D5E1BB610AB426E
:1005780005D0002408CD01349847A642FAD870BDAA
:100588009026000890260008942600089026000867
:10059800F0B50500830749D0541E002A45D0030052
:1005A8000326CAB202E00135013C3ED301332A706A
:1005B8003342F8D1032C30D9FF220A401502AD1876
:1005C8002A04AD180F2C34D92700103F3F093E01EB
:1005D800B4461E001A0010366644156055609560D2
:1005E800D56010329642F8D101373F01DB190F2749
:1005F8000C22274022403C00002A0ED03E1FB6089D
:10060800B400A4461A001C1D644420C2A242FCD1B6
:1006180003240136B6009B193C40002C05D0C9B212
:100628001C19197001339C42FBD1F0BD0300140062
:10063800C0E72700E2E7C046F0B505000F2A31D928
:1006480003273E000D430C0003002E402F4234D1F7
:100658001500103D2D09AC462F013F1865685D60F7
:10066800A5689D60E568DD60256810341D601D0083
:100678001033BD42F2D165460F230C2401352D01FC
:1006880049191340451914421AD0043B9B080133F9
:100698009B008C59AC5104369E42FAD10323AD1904
:1006A80089191A40561E002A06D00023CC5C1A006D
:1006B800EC5401339642F9D1F0BD0500561EF4E71B
:1006C8001A00EFE710B500F0EFF80120014B1870A1
:1006D80010BDC04624000020902210B50021044817
:1006E8009200FFF755FF0020024B187010BDC0465E
:1006F8004F0200202400002070B5124C050023781A
:100708000E00002B05D10200722001F0B1F8012083
:1007180070BD013401F062F928002200310000F0B8
:100728006DF9050001F062F9002D06D12200422181
:10073800722001F09DF80020EAE701216520024AB5
:10074800F7E7C046240000208B26000810B501F00A
:1007580095F801F0BFF801F0FDF801F015F8102147
:10076800084A6B2001F00AF81021074A702001F0AE
:1007780005F800217820054A01F000F801F01CF87E
:10078800FCE7C046CD06000801070008E10600089E
:10079800FF2200011040F03A024B11400843185C58
:1007A8007047C046982400084B10C05CC90701D5A3
:1007B800000970470F231840FBE70723F7B59C464D
:1007C800019100216446CE108519AA788C432241F4
:1007D800022352001A402B79042723419B003B40F7
:1007E8001343825D0126224132401A43AB792341EB
:1007F8000824DB0023401A43019B5A548919102905
:10080800E0D1F7BD10B513004A108418825C0F20A0
:10081800C90705D502401B011A43D2B2227010BD88
:10082800824303401A43F9E710B54B10C418C35C60
:10083800C90704D512015340DBB2237010BD0F2144
:100848000A405340F9E700002023F0B5102585B091
:100858009B1A0390AD1A8E000293114C2C4004D5BC
:100868001023013C5B421C4301343700A400231DC4
:10087800019321000398FFF797FF0A4B0200390004
:100888001800FFF7D1FF019B013401379C42F0D1DA
:10089800029B013514369D42DFD105B0F0BDC0463C
:1008A8000F000080AF010020F0B5302300240500C0
:1008B800A3B016AE220010210593049623000394DA
:1008C80002940194009400F079FE29001022464811
:1008D800FFF7B2FE102231004448FFF7ADFE202298
:1008E8001AA94348FFF7A8FE802221009200414838
:1008F800FFF74EFE404D280000F014FE280010229D
:10090800310000F015FE280000F02CFE2700A3009F
:100918000D930822384810A900F039FEBC423CD09B
:1009280012A910A8BE00FFF748FF331D0C930D9BBA
:1009380007932F4D31002800FFF736FF07990E90D7
:100948002800FFF731FF0025079B0F901B010A9332
:1009580033010B9312ABEB5C0E9918000893FFF769
:1009680017FF0A9B0200E918224B18000993FFF7AA
:100978005BFF0F990898FFF70BFF0B9B0200E91824
:1009880009980135FFF750FF102DE3D1079B013679
:10099800013307930C9B9E42CBD10137102FB8D15E
:1009A8000134102CB2D10026340123004033043620
:1009B80007930822104810A912AF00F0E8FD39008B
:1009C80010A8FFF7FAFE00257A5D291909480135B4
:1009D800FFF72AFF102DF7D1079B10349C42E8D16E
:1009E800402EE1D123B0F0BD4F0200205F0200206D
:1009F8006F0200208F02002090040020F0B5002430
:100A08001025D3B01BAE23000C9205952200049646
:100A1800039402940194009400F0D0FDC94B1FAFD9
:100A280029003000C84A009305952B0004970394C9
:100A38000294019500F0C2FD0823059312AB0493BC
:100A48003A002B002900300003940294019400948A
:100A580000F0B4FD08941F230AAA9B18089A1021D5
:100A68001A703222059227AA049201220293B54BEA
:100A78000392009301910B001FAA1BA800F09EFD92
:100A88000025B24B00210B930B9A6B019B1809931D
:100A980027AAEB009B18099820220D930024FFF742
:100AA80077FD21000D98FFF77FFE0A90002820D0DF
:100AB8000026A30107933700079B06930699A448CD
:100AC800FFF772FE01000A98FFF762FE3900020084
:100AD8000998FFF7A9FE069B0437013306933300F4
:100AE80040339F42EAD1079B013610330793042E07
:100AF800E1D10134102CD4D10135052DC1D1782292
:100B0800002134A8FFF744FD924D0027280000F08B
:100B180009FD22002800904900F00AFD280000F095
:100B280021FD069708228B4816A900F030FD069B88
:100B38009F423CD023A916A8FFF73FFE00231E00C2
:100B4800099327AAF3009B180D93099B34AADB008D
:100B5800D3180A930423079339000D98FFF724FE4E
:100B6800069905000D98FFF71FFE079B27AADB00D3
:100B78009B180E93079B04009E4200D0BEE0010024
:100B88002800FFF705FE0500002D00D0CBE0079BED
:100B9800013B07930A9B08330A93079BB342DBDAAE
:100BA800099B05339B1B01360993052EC9D1069B6A
:100BB80001330693102BB5D10137102FB1D1A022E4
:100BC80000216648FFF7E4FC082212A914A8FFF7E1
:100BD80033FD00231C0006930A9704250B9A630132
:100BE8009B18069E09930027F30034AA9B180793C5
:100BF8000A9B9B1B0D930D9BD919594B194004D582
:100C0800102301395B42194301310798FFF7CCFDE6
:100C180039000200013714A8FFF706FE102FEAD1A9
:100C28000B9B680132002100C018FFF70DFEAC4293
:100C380004D0320029000998FFF706FE013D01366D
:100C4800A542D0DA069B05331B1B01340693052CFD
:100C5800C3D10025A02241494248FFF7EDFC0822F4
:100C6800414814A9FFF7E8FC18AA31AB11CB11C20F
:100C78001B8813800026142734006F43394B0693D2
:100C8800E1190698FFF790FD2100079031A8FFF7BA
:100C98008BFD01000798FFF77BFD01344640F6B253
:100CA800142CEDD1290032002F480135FFF7BCFD87
:100CB800102DDFD100231F00069309943C00294E14
:100CC800099D069B65433000E918FFF76DFD002874
:100CD80000D0BEE00134102CF2D1069B01330693FC
:100CE800142BEBD1089B013308938023089A5B00EF
:100CF8009A4200D0AFE601204042A0E039000E98A9
:100D0800FFF752FD06990F900E98FFF74DFD010071
:100D18002800FFF73DFD210005000F98FFF738FD7B
:100D28004540EDB230E7002423ABE15C2800FFF733
:100D38002FFD2100020001340A98FFF775FD102CE1
:100D4800F2D124E74F020020882400080F01002078
:100D58008F020020900400205F020020AF010020D5
:100D68000F0000806F000020670000200134142C61
:100D78001DD0079B06981919FFF716FD0128F5D114
:100D88000026B54207D03900714306980919FFF7C4
:100D98000BFD0028EAD10136102EF2D1290089482E
:100DA800FFF702FD2100020018A8FFF73DFD0135FD
:100DB800102D00D0FEE0422200210C98FFF7E8FB3E
:100DC80000256B0027AAD3180793052300246B433B
:100DD80008930F2C35DC21000798FFF7E5FC2F005E
:100DE8000600A3000693784B0A932B1D0B9339003A
:100DF80018A8FFF7D9FC069909900A98FFF7D4FCC0
:100E08000999FFF7C5FC069B4640013306930B9BE7
:100E18000137F6B29F42EAD1089B3200E1180C98DC
:100E28000134FFF701FD142CD3D10435142DC8D19A
:100E38000C98102232301FA9FFF7FEFB002053B098
:100E4800F0BD29001039091918A8FFF7ADFC0600F4
:100E5800E2E7099B7B430A93BC4233D00A9E07957D
:100E6800330014330B93594D31002800FFF79CFCD5
:100E780007990D902800FFF797FC31000200280021
:100E8800FFF7C0FC28000D9A0799FFF7BBFC079BEA
:100E98000136013307930B9B9E42E4D1494D39003B
:100EA8002800FFF781FC210006002800FFF77CFCE2
:100EB800390002002800FFF7A5FC320021002800B5
:100EC800FFF7A0FC069B0A999C4640486144FFF73F
:100ED8006BFC041E11D00100FFF75AFC010004004E
:100EE800FFF756FC05000100FFF752FC2900FFF749
:100EF8004FFC2100FFF74CFC0400099B069D7B4337
:100F08000A930A9B314EEB18190030000793FFF73C
:100F18004BFC2100FFF73CFC01350200079930002B
:100F2800FFF770FC142DECD1264D39002800FFF78F
:100F38003BFC2100FFF72CFC390002002800FFF7DA
:100F480061FC0024A7422CD0099B069A63431F48E2
:100F580099180793FFF728FC051E22D0069E0A9BC6
:100F6800F1181A4B18000B93FFF71EFC010028001C
:100F7800FFF70EFC079B0200F1180B980136FFF7EC
:100F880053FC142EEBD10F4E39003000FFF70CFC48
:100F980001002800FFF7FCFB210002003000FFF7EA
:100FA80043FC0134102CCDD10137102F00D094E62A
:100FB800002514273B006B430793044B002406933A
:100FC800D7E6C046670000206F0200206F000020AF
:100FD800F0B5F94BC9B007930023040010932368B8
:100FE800250016936368169A1793A36A9835189381
:100FF800E36A1993236D19991A93636D1B93A36F71
:101008001C93E36F1D932300A03308931B681E9362
:10101800089B5B681F93189B5A40179B4B401A9973
:101028004A401B994B401C994A401D994B401E99B8
:10103800514011911F9A5A40A36812922093E36875
:10104800209A2193236B2293636B2393A36D239997
:101058002493E36D2593230080330A931B6826931A
:101068000A9B5B6827932300A8330B931B6828937C
:101078000B9B5B682993229B5A40219B4B402499E8
:101088004A4025994B4026994A4027994B40289930
:101098005140299A05915A40236906922A93636917
:1010A8002A9A2B93A36B2C93E36B2D93236E2E9389
:1010B800636E2F93230088330C931B6830930C9B2B
:1010C8005B6831932300B0330D931B6832930D9BFB
:1010D8005B6833932C9B5A402B9B2D994B402E9940
:1010E8004A402F994B4030994A4031994B403299A8
:1010F8005140339A13915A40A36914923493E36987
:101108003593236C3693636C3793A36E3893E36EF1
:101118003993230090330E931B683A930E9B5B68B8
:101128003B93B8239C46A44463461B683C936346A0
:101138005B683D933498369B35995840379B5940A6
:10114800389B5840399B59403A9B58403B9B5940E3
:101158003C9B4340200015933D9BC0305940236A77
:101168000F903E93636A3F93A36C4093E36C419363
:10117800236F4293636F43932B6844936B68459343
:1011880003684693436847933E9A409B41985A4068
:101198003F9B4340429842404398434044984240D2
:1011A8004598434046984240479843400698C70FA1
:1011B800059846003743C60F069857404000064337
:1011C80014980197C70F13985E400296460037435C
:1011D800C60F14984000064311987840039012985F
:1011E800CF0F70400490159846003743C60F48004B
:1011F80006430598784005900698DF0F7040560022
:101208003743D20F149E5B0013435E40139A129B20
:101218005740DA0F119B06905B001A43119B1298F6
:10122800DB0F4000034315984B4042401699019844
:1012380041402160029817994140616003982099C4
:101248004140A160049821994140E16005982A999C
:101258004140216106982B99414061613499019878
:101268007940A16135997140E1613E99514021620F
:101278003F995940616218994140A16219990298B1
:101288004140E162039822994140216304982399DF
:101298004140616305982C994140A16306982D99B6
:1012A8004140E1633699019879402164379971404A
:1012B800616440995140A16441995940E1641A9987
:1012C8004140216502981B99414061650398249922
:1012D8004140A165259904984140E16505982E99FA
:1012E8004140216606982F994140616638990198D6
:1012F8007940A16639997140E16642995140216768
:101308004399594061671C994140A16702981D990A
:101318004140E1670398269941400A980160049882
:10132800279941400A9841603099059841400C98A6
:1013380001600698319941400C9841603A990E989D
:10134800794001603B99714041604499019851404E
:1013580029604599594069601E9941400898016083
:1013680002981F9941400898416003982899414084
:101378000B9801600498299941400B984160329973
:10138800059841400D9801600698339941400D98A1
:1013980041603C9960464F4061460F6000273D9987
:1013A8007140416046994A400F990A60479A5340F4
:1013B8004B60024B029303E0B8250008982500080B
:1013C80028237B431B190493032325007B430193A4
:1013D8000A330A93029B0393514B05930198052105
:1013E800FFF794F805235943059BCE19F6009E197B
:1013F800039B04991B7806930CC9089209930491DE
:10140800069A08980999FFF793F8069B0B905A4299
:101418003F230C911A4008980999FFF77DF80B9B18
:10142800034333600C9B0B437360039B01330393AB
:10143800019B02330193019A0A9B9342CED1029BEE
:10144800013705330293052FBAD12200059BC83214
:1014580008921A685F6901925A6898680292DA6875
:1014680003921A69039E944611003A00B243019E02
:1014780081437140296002994A406A609E69DA692D
:1014880031000492624691434140049AA96003994D
:10149800BA434A40EA601A6A049905925A6A28339C
:1014A8000692059AB2430A92069A8A430B926246BA
:1014B8000A994A402A610B9A05995740019A6F6127
:1014C8008A439446029F069A974362465640049A76
:1014D800AE615740019A039E9043029A4840964352
:1014E800069AEF615640089A28626E622835AA4229
:1014F800AFD1079B22681B6807995A4049686368FF
:1015080022604B406360109B01331093079B0833A4
:101518000793109B182B00D061E549B0F0BDC04679
:101528006005002010B5D0220021FFF731F810BD6A
:10153800F8B505000C008F18BC4200D1F8BD2E008C
:10154800C83633785A1C3270EA5C21784A40EA542B
:101558003378882B04D12800FFF73AFD0023337035
:101568000134E9E710B504001F23C8342278815CF0
:101578004B40835402008023873211785B424B40F2
:101588001370FFF725FD80235B00238010BDF8B59D
:1015980005000C008E18B44200D1F8BD2F00C837E2
:1015A8003B78882B03D12800FFF712FD00235A1C33
:1015B8003A70EB5C23700134EDE70000F7B51D4C81
:1015C800060020000F001D000192FFF7ABFF002E60
:1015D80006D0002F04D03A0031002000FFF7A8FF02
:1015E800019B002B06D0002D04D02A0019002000F2
:1015F800FFF79EFF089B002B07D0099B002B04D008
:101608001A0020000899FFF793FF0A9B002B07D0C8
:101618000B9B002B04D01A0020000A99FFF788FFC3
:101628002000FFF79FFF20000D9A0C99FFF7AFFFEE
:10163800F7BDC0469004002001207047F8B50D00A2
:1016480014000F2700F0F2F96519AC4203D10A2003
:1016580000F0ECF9F8BD2378054E1B09F05C00F0AA
:10166800E5F9237801343B40F05C00F0DFF9ECE762
:101678007826000807B56B46DA1D044B72201B68F4
:1016880001211370FFF7DAFF00200EBD28060020A5
:10169800F0B5104B99B01D686A4600230E4EEFB2A4
:1016A800BB4208DB032169437220C9B2FFF7C6FFBA
:1016B800002019B0F0BD032058431C01A15D341966
:1016C80011546168247B1018013341708470DBB2B7
:1016D800E6E7C046280600202C06002070B5140056
:1016E800A31A984201DC00201FE04D780B782E00E9
:1016F800303EF6B2092E0CD826701D00303DEDB2F2
:10170800092D15D823782D012B432370023101347C
:10171800E6E72E00413E052E02D8373D2570ECE75E
:101728002E00613E052E01D9012070BD573DF5E719
:101738001D00413D052D03D8373B25781B01E3E704
:101748001D00613D052DEFD8573BF6E7F0B5094F71
:1017580006003D6801201F2D0BDC3F2909D8064CE7
:101768002801065520184160826003730020013566
:101778003D60F0BD280600202C06002010B500238F
:10178800FFF7E4FF10BD000010B50021074A7620DE
:10179800FFF7F4FF0021064A7720FFF7EFFF00214B
:1017A8007920044AFFF7EAFF10BDC0464116000839
:1017B800991600087D160008F0B50024B3B000F0B3
:1017C8001DF9294B294A1B68A3423CDC39D0012268
:1017D800264D24012F193B7B134213D06A46002360
:1017E800137200F00BF912AE307000F007F93100F7
:1017F800707002AA0120FFF771FF002821D16B4603
:101808001B7A7B6000262B195B685B00B34220D8EB
:1018180000F0F4F80A2801D00D2812D12D196C68AF
:1018280002AA200012A9FFF759FF002809D1E1B246
:10183800AB6802A8984701AA107001217A20FFF727
:10184800FDFE33B0F0BD2101515C8142BFD00134AF
:10185800BAE700F0D3F80A28F3D00D28F1D012AB7C
:10186800F0540136CFE7C046280600202C06002099
:1018780010B5002A01D0FFF7E1FE10BD902070B529
:10188800042300240125032696B005A9C005059365
:1018980006950794089600F047FB9020102305A9A9
:1018A800C005059306950794089600F03DFB0523AF
:1018B8000AA80B930A960D94139400F0CDF8072309
:1018C800210001A8019302950394049400F0A2FA60
:1018D80016B070BD802270B51B4C9202636988B047
:1018E800134363616369902013400193019BC023F4
:1018F800DB00012503260393022303A9C0050493F3
:1019080005950795069600F00FFB8022A369D20182
:101918001343A361A3690D4813400293029B236BF1
:10192800B3431D430A4B2563036096231B024360A0
:1019380000238360C360036183610C33436100F05B
:101948005DFC08B070BDC046001002402C080020A5
:101958000038014080219020F0B50124002503269D
:1019680080271D4B89025A6987B00A435A615B690F
:10197800C0050B40009301A9009B019702940395B1
:10198800049600F0D1FA9020102301A9C005019314
:1019980002940395049600F0C7FA9020042301A945
:1019A800C005019302940395049600F0BDFA9020B7
:1019B8002A003900C00500F069FB902022001021A0
:1019C800C00500F063FB902022000421C00500F050
:1019D8005DFB07B0F0BDC04600100240902010B576
:1019E80001228021C00500F051FB10BD902010B5E8
:1019F80000228021C00500F049FB10BD37B508243E
:101A08006B46DD1D012232232900064800F028FC20
:101A1800002801D128783EBD034A136A2343136284
:101A2800EEE7C0462C0800200038014007B56B4699
:101A3800D91D087001220248024B00F087FC07BD3F
:101A48002C08002088130000024B1868421C1A60FA
:101A58007047C0469C080020F0B50368040085B0B4
:101A6800DB072FD423689B0700D581E023681B0779
:101A780000D5BCE023685B0700D5DFE02368DB0600
:101A88001AD562690423B44D012A00D048E1696B74
:101A980002270B436B636B6B1A436A63FFF7D4FF30
:101AA80006006B6B3B4200D133E1F8216A6BA369F6
:101AB8008A43DB0013436B63216A002900D057E196
:101AC80000202AE00C22A44D6B681340042B06D09A
:101AD8006B681340082B0AD16B68DB0307D52B68AA
:101AE8009B03BFD56368002BBCD1012015E0636858
:101AF800012B14D180232A685B0213432B60FFF764
:101B0800A3FF80270600BF022B683B42AAD1FFF73C
:101B18009BFF801B6428F7D9032005B0F0BD002B7C
:101B280016D12B688D4A802713402B602B688C4A6E
:101B3800BF0213402B60FFF787FF06002B683B426C
:101B480000D18FE7FFF780FF801B6428F6D9E3E711
:101B5800052B05D180232A68DB0213432B60C9E7D4
:101B68002B687E4A13402B602B687D4A1340C5E7DB
:101B78000C22794D6B68134206D06B681340082B12
:101B880010D16B68DB030DD42B689B0702D5E36883
:101B9800012BAAD1F8212A6823698A43DB00134361
:101BA8002B6063E7E2680123002A0FD02A68022726
:101BB80013432B60FFF748FF06002B683B42E9D12F
:101BC800FFF742FF801B0228F7D9A5E72A680227FA
:101BD8009A432A60FFF738FF06002B683B4200D182
:101BE80044E7FFF731FF801B0228F6D994E7E26942
:101BF8000123594D002A10D06A6A022713436B62E9
:101C0800FFF722FF06006B6A3B4200D032E7FFF77E
:101C18001BFF801B0228F6D97EE76A6A02279A43CF
:101C28006A62FFF711FF06006B6A3B4200D121E7A9
:101C3800FFF70AFF801B0228F6D96DE780220021F2
:101C4800454D5205EB690091134208D1EB691343E6
:101C5800EB61EB6913400393039B012300938027F7
:101C6800404E7F0033683B4215D0A368012B22D138
:101C78002A6A13432B62FFF7E7FE022706002B6A46
:101C88003B423FD0009B012B00D0F7E6EB69364A78
:101C98001340EB61F2E633683B433360FFF7D4FE51
:101CA800019033683B42E0D1FFF7CEFE019BC01A9A
:101CB8006428F6D930E70122002B14D12B6A0227B9
:101CC80093432B622B6A033293432B62FFF7BCFECC
:101CD80006002B6A3B42D5D0FFF7B6FE234B801B8C
:101CE8009842F6D918E7052B05D1296A013B0B4321
:101CF8002B622B6ABDE72B6A934304222B622B6A63
:101D08009343B7E7FFF7A0FE184B801B9842B6D95C
:101D180002E7FFF799FE801B022800D8C1E6FBE620
:101D2800053203D16A6B9A436A63BEE66A6B02277F
:101D3800134301226B636B6B93436B63FFF784FE62
:101D480006006B6B3B4200D1B6E6FFF77DFE801BB9
:101D58000228F6D9E0E6C04600100240FFFFFEFF69
:101D6800FFFFFBFF00700040FFFFFFEF881300003C
:101D78000C22254D6B681340082B00D1B5E62B6863
:101D8800224A13402B6002292FD1FFF75DFE8027DE
:101D98000600BF042B683B4221D10F22EB6A802644
:101DA8009343E26AB6041343EB62616AA36A6A6802
:101DB8000B4317490A4013436B6080232A685B046E
:101DC80013432B60FFF740FE04002B68334200D01A
:101DD80076E6FFF739FE001B0228F6D99CE6FFF7E6
:101DE80033FE801B0228D5D996E6FFF72DFE802604
:101DF8000400B6042B68334200D161E6FFF724FEE5
:101E0800001B0228F6D987E600100240FFFFFFFEFC
:101E1800FFFFC2FFF7B501223E4D04002B680F00FB
:101E280013408B4212D32268930719D4D2071FD4C8
:101E380001232A681A40BA425DD823685B0761D437
:101E4800E122354BD20300201A6008E02B68934347
:101E58000B432B602B6813408B42E4D00120FEBD5E
:101E6800F0202E494B688343A06803434B60DDE7AD
:101E78002A4E62683368012A1AD19B03EED50321E2
:101E880073688B4313437360FFF7DEFD636801904B
:101E9800012B15D10C2273681340042BC8D0FFF70F
:101EA800D3FD019BC01A1E4B9842F3D90320D6E7F5
:101EB800022A02D19B01E2D4D0E79B07DFD4CDE709
:101EC800022B12D00C2273681342B1D0FFF7BCFD6D
:101ED800019BC01A124B9842F4D9E7E7FFF7B4FD0B
:101EE800019BC01A0E4B9842E0D80C22736813402D
:101EF800082BF3D19CE72A689A432A602A681A4279
:101F08009BD0ABE7054A074953680B40E1680B4390
:101F1800536095E7002002400000002000100240B6
:101F280088130000FFF8FFFF0023F0B587B00A68A8
:101F38001400DC4001D107B0F0BD012614009E401A
:101F480034400294324200D192E04A68150001926E
:101F5800102295430395022D0FD107240F251C400D
:101F6800A400A540DA0892008218176AAF43BC465D
:101F78000F69A74064462743176203225C00A2400A
:101F8800D543AC46032507689743019A2A40A240E7
:101F9800039D3A43013D0260012D0DD862468568D4
:101FA8001540CA68A2402A438260019A456812090E
:101FB8009A40B5432A4342606246C56815408A681C
:101FC800A24080242A43C260019A640522424FD06D
:101FD8000125284A90279469FF052C43946192694A
:101FE8009C082A400592059A234AA400A4180F22A7
:101FF80002351D40AD00AA40A66896430022B842AB
:102008000CD01E4F0132B84208D01D4F0132B842E1
:1020180004D01C4F0332B84200D1023AAA403243DE
:10202800A260194A029C1668029D019FE443354349
:10203800FF0301D43500254015605668029D019FB5
:102048003543BF0301D43500254055609668029D8D
:10205800019F3543FF0201D4350025409560D568BE
:10206800029E019F2E43BF0201D425402E00D66058
:1020780001335CE700100240000001400004004802
:1020880000080048000C004800040140002A01D064
:10209800816170478162FCE7F7B504000E00170004
:1020A80001932568EB6933409B1B5A425341BB425D
:1020B80001D0002017E0089B0133F3D0089B002BC8
:1020C80012D12B680C4A032013402B60AB68A33253
:1020D800FF3293432200AB602023693213705370A0
:1020E800002368342370FEBDFFF7AEFC019BC01AC5
:1020F800089B9842D5D9E4E75FFEFFFF030070B55F
:102108009A681D6904682A435D69C1692A43206881
:10211800334D0A43284002432260626831481D6AF1
:102128000240D868024362609A69A0682A432E4D2B
:102138002840024303208025A2602C4A2D02126BFE
:102148000240013A022A37D82948805CA94214D1B2
:1021580008280FD8FEF760F8320E050E320E0E0E64
:1021680009005968234B48082CE05968802348081F
:102178005B0227E00120002329E008281AD8FEF78F
:102188004BF80F1905190F191919140059681A4B2A
:102198004808C018FEF74AF880B2E06000201DE049
:1021A8005968E1234808DB03F3E7596880234808A6
:1021B8001B02EEE7012011E0A942F1D15968E123A1
:1021C80048081B04C018FEF731F883B20020190034
:1021D8000F221B0791435B0F0B43E36070BDC046A2
:1021E800F369FFFFFFCFFFFFFFF4FFFF001002407E
:1021F800882600080048E8010024F400F8B5041E09
:1022080001D10120F8BD070069373B78DAB2002B0D
:1022180002D1030068331A70242301263B70256815
:1022280020002B68B3432B60FFF768FFB042E8D06B
:102238006B680A4A2100134008226B60AB686A3158
:102248009343AB602B6818321E4300232E6068341A
:1022580063603A700A702370D4E7C046FFF7FFFF47
:10226800F0B585B0039303006A3316001A780400AA
:102278000D000220202A3BD10138002938D0002E39
:1022880036D08022A1685201914204D12269002AE5
:1022980001D105422CD1220068321178022001298F
:1022A80026D0012111700022E26622321A70FFF74F
:1022B800CBFB23008021A26858331E805E800290E9
:1022C800490104338A4217D12269002A12D11E4AD1
:1022D8001A8080271E887F0122005A32138898B2FC
:1022E800002B10D1230020226A3368341A70207022
:1022F80005B0F0BDFF22EBE7002AEAD12269002AE7
:10230800F8D07F22E4E713882021013B9BB2138099
:10231800039B002200932000029BFFF7BDFE0028CC
:1023280010D1A2682368BA4207D12269002A04D1D1
:102338009B8C33402B800235CEE79B8C33402B702F
:102348000135C9E70320D3E7FF010000F0B5070016
:1023580085B0039369373B7804000D00160002200E
:10236800202B46D10138002943D0002A41D08023B0
:10237800A2685B019A4204D12369002B01D1014272
:1023880037D1230068331A780220012A31D001227C
:102398001A700023E36621333B70FFF755FB2300D7
:1023A80050331E805E8080260290760121005231D3
:1023B8000B889AB2002B0DD1039B4021009320007B
:1023C800029BFFF769FE002812D1202368343B7076
:1023D80020700EE00B880022013B9BB20B80039B10
:1023E800802100932000029BFFF756FE002802D0B0
:1023F800032005B0F0BDA3682268B34208D1236961
:10240800002B05D12B880235DB05DB0D1385CDE7C5
:102418002B7801351385C9E7002103E00B4B5B5886
:10242800435004310A480B4B42189A42F6D30A4AE1
:1024380002E0002313600432084B9A42F9D300E00B
:1024480000BFFEF781F8FEF781F9FEE7982600083D
:10245800000000200400002008000020A008002040
:10246800FEE70000F8B5C046F8BC08BC9E467047B9
:0C247800F8B5C046F8BC08BC9E46704792
:102488000000000000000000000000000000000044
:102498000000000000000000000000000000000034
:1024A800000102030405060708090A0B0C0D0E0FAC
:1024B80000020406080A0C0E030107050B090F0D9C
:1024C800000306050C0F0A090B080D0E070401028C
:1024D8000004080C03070B0F06020E0A05010D097C
:1024E80000050A0F07020D080E0B0401090C03066C
:1024F80000060C0A0B0D07010503090F0E0802045C
:1025080000070E090F0801060D0A030402050C0B4B
:102518000008030B060E050D0C040F070A0209013B
:1025280000090108020B030A040D050C060F070E2B
:10253800000A070D0E0409030F050802010B060C1B
:10254800000B050E0A010F04070C02090D0608030B
:10255800000C0B0705090E020A06010D0F030408FB
:10256800000D0904010C0805020F0B06030E0A07EB
:10257800000E0F010D03020C09070608040A0B05DB
:10258800000F0D020906040B010E0C030807050ACB
:1025980000013E1C1B242C063714030A2B1927297B
:1025A8002D0F150812023D380E0000000000000033
:1025B8000100000000000000828000000000000010
:1025C8008A800000000000800080008000000080F9
:1025D8008B80000000000000010000800000000067
:1025E80081800080000000800980000000000080D9
:1025F8008A000000000000008800000000000000C1
:1026080009800080000000000A000080000000002F
:102618008B800080000000008B000000000000801C
:102628008980000000000080038000000000008016
:102638000280000000000080800000000000008090
:102648000A800000000000000A00008000000080EE
:1026580081800080000000808080000000000080F1
:102668000100008000000000088000800000008059
:1026780030313233343536373839414243444546B0
:08268800040802FF000000003D
:04269000FD01000840
:04269400D101000868
:0426980000127A00B2
:0400000508002421AA
:00000001FF
